{
  "contracts/LocalVariable.sol": {
    "LocalVariableExample": {
      "abi": [
        {
          "inputs": [
            {
              "internalType": "uint256",
              "name": "a",
              "type": "uint256"
            },
            {
              "internalType": "uint256",
              "name": "b",
              "type": "uint256"
            }
          ],
          "name": "calculateSum",
          "outputs": [
            {
              "internalType": "uint256",
              "name": "",
              "type": "uint256"
            }
          ],
          "stateMutability": "pure",
          "type": "function"
        }
      ],
      "evm": {
        "bytecode": {
          "linkReferences": {},
          "object": "6080604052348015600f57600080fd5b506101b98061001f6000396000f3fe608060405234801561001057600080fd5b506004361061002b5760003560e01c8063ea4097bd14610030575b600080fd5b61004a600480360381019061004591906100b6565b610060565b6040516100579190610105565b60405180910390f35b600080828461006f919061014f565b90508091505092915050565b600080fd5b6000819050919050565b61009381610080565b811461009e57600080fd5b50565b6000813590506100b08161008a565b92915050565b600080604083850312156100cd576100cc61007b565b5b60006100db858286016100a1565b92505060206100ec858286016100a1565b9150509250929050565b6100ff81610080565b82525050565b600060208201905061011a60008301846100f6565b92915050565b7f4e487b7100000000000000000000000000000000000000000000000000000000600052601160045260246000fd5b600061015a82610080565b915061016583610080565b925082820190508082111561017d5761017c610120565b5b9291505056fea26469706673582212203bf902936514058dc6e5e795662d452a1a690ae2ca33068bbe9fe354e90e677964736f6c634300081c0033",
          "opcodes": "PUSH1 0x80 PUSH1 0x40 MSTORE CALLVALUE DUP1 ISZERO PUSH1 0xF JUMPI PUSH1 0x0 DUP1 REVERT JUMPDEST POP PUSH2 0x1B9 DUP1 PUSH2 0x1F PUSH1 0x0 CODECOPY PUSH1 0x0 RETURN INVALID PUSH1 0x80 PUSH1 0x40 MSTORE CALLVALUE DUP1 ISZERO PUSH2 0x10 JUMPI PUSH1 0x0 DUP1 REVERT JUMPDEST POP PUSH1 0x4 CALLDATASIZE LT PUSH2 0x2B JUMPI PUSH1 0x0 CALLDATALOAD PUSH1 0xE0 SHR DUP1 PUSH4 0xEA4097BD EQ PUSH2 0x30 JUMPI JUMPDEST PUSH1 0x0 DUP1 REVERT JUMPDEST PUSH2 0x4A PUSH1 0x4 DUP1 CALLDATASIZE SUB DUP2 ADD SWAP1 PUSH2 0x45 SWAP2 SWAP1 PUSH2 0xB6 JUMP JUMPDEST PUSH2 0x60 JUMP JUMPDEST PUSH1 0x40 MLOAD PUSH2 0x57 SWAP2 SWAP1 PUSH2 0x105 JUMP JUMPDEST PUSH1 0x40 MLOAD DUP1 SWAP2 SUB SWAP1 RETURN JUMPDEST PUSH1 0x0 DUP1 DUP3 DUP5 PUSH2 0x6F SWAP2 SWAP1 PUSH2 0x14F JUMP JUMPDEST SWAP1 POP DUP1 SWAP2 POP POP SWAP3 SWAP2 POP POP JUMP JUMPDEST PUSH1 0x0 DUP1 REVERT JUMPDEST PUSH1 0x0 DUP2 SWAP1 POP SWAP2 SWAP1 POP JUMP JUMPDEST PUSH2 0x93 DUP2 PUSH2 0x80 JUMP JUMPDEST DUP2 EQ PUSH2 0x9E JUMPI PUSH1 0x0 DUP1 REVERT JUMPDEST POP JUMP JUMPDEST PUSH1 0x0 DUP2 CALLDATALOAD SWAP1 POP PUSH2 0xB0 DUP2 PUSH2 0x8A JUMP JUMPDEST SWAP3 SWAP2 POP POP JUMP JUMPDEST PUSH1 0x0 DUP1 PUSH1 0x40 DUP4 DUP6 SUB SLT ISZERO PUSH2 0xCD JUMPI PUSH2 0xCC PUSH2 0x7B JUMP JUMPDEST JUMPDEST PUSH1 0x0 PUSH2 0xDB DUP6 DUP3 DUP7 ADD PUSH2 0xA1 JUMP JUMPDEST SWAP3 POP POP PUSH1 0x20 PUSH2 0xEC DUP6 DUP3 DUP7 ADD PUSH2 0xA1 JUMP JUMPDEST SWAP2 POP POP SWAP3 POP SWAP3 SWAP1 POP JUMP JUMPDEST PUSH2 0xFF DUP2 PUSH2 0x80 JUMP JUMPDEST DUP3 MSTORE POP POP JUMP JUMPDEST PUSH1 0x0 PUSH1 0x20 DUP3 ADD SWAP1 POP PUSH2 0x11A PUSH1 0x0 DUP4 ADD DUP5 PUSH2 0xF6 JUMP JUMPDEST SWAP3 SWAP2 POP POP JUMP JUMPDEST PUSH32 0x4E487B7100000000000000000000000000000000000000000000000000000000 PUSH1 0x0 MSTORE PUSH1 0x11 PUSH1 0x4 MSTORE PUSH1 0x24 PUSH1 0x0 REVERT JUMPDEST PUSH1 0x0 PUSH2 0x15A DUP3 PUSH2 0x80 JUMP JUMPDEST SWAP2 POP PUSH2 0x165 DUP4 PUSH2 0x80 JUMP JUMPDEST SWAP3 POP DUP3 DUP3 ADD SWAP1 POP DUP1 DUP3 GT ISZERO PUSH2 0x17D JUMPI PUSH2 0x17C PUSH2 0x120 JUMP JUMPDEST JUMPDEST SWAP3 SWAP2 POP POP JUMP INVALID LOG2 PUSH5 0x6970667358 0x22 SLT KECCAK256 EXTCODESIZE 0xF9 MUL SWAP4 PUSH6 0x14058DC6E5E7 SWAP6 PUSH7 0x2D452A1A690AE2 0xCA CALLER MOD DUP12 0xBE SWAP16 0xE3 SLOAD 0xE9 0xE PUSH8 0x7964736F6C634300 ADDMOD SHR STOP CALLER "
        },
        "methodIdentifiers": {
          "calculateSum(uint256,uint256)": "ea4097bd"
        }
      }
    }
  }
}