{
  "_format": "hh-sol-artifact-1",
  "contractName": "AssertExample",
  "sourceName": "contracts/AssertExample.sol",
  "abi": [
    {
      "inputs": [],
      "name": "increment",
      "outputs": [],
      "stateMutability": "nonpayable",
      "type": "function"
    },
    {
      "inputs": [],
      "name": "value",
      "outputs": [
        {
          "internalType": "uint256",
          "name": "",
          "type": "uint256"
        }
      ],
      "stateMutability": "view",
      "type": "function"
    }
  ],
  "bytecode": "0x60806040526001600055348015601457600080fd5b506101a4806100246000396000f3fe608060405234801561001057600080fd5b50600436106100365760003560e01c80633fa4f2451461003b578063d09de08a14610059575b600080fd5b610043610063565b60405161005091906100ad565b60405180910390f35b610061610069565b005b60005481565b60008081548092919061007b906100f7565b919050555060008054036100925761009161013f565b5b565b6000819050919050565b6100a781610094565b82525050565b60006020820190506100c2600083018461009e565b92915050565b7f4e487b7100000000000000000000000000000000000000000000000000000000600052601160045260246000fd5b600061010282610094565b91507fffffffffffffffffffffffffffffffffffffffffffffffffffffffffffffffff8203610134576101336100c8565b5b600182019050919050565b7f4e487b7100000000000000000000000000000000000000000000000000000000600052600160045260246000fdfea26469706673582212205ddb0d42511fcfcb26939f764c52776b33b6c34452cd41de2a67722b1f79f8e964736f6c634300081c0033",
  "linkReferences": {},
  "deployedLinkReferences": {}
}