{
  "_format": "hh-sol-artifact-1",
  "contractName": "BasicModifier",
  "sourceName": "contracts/BasicModifier.sol",
  "abi": [
    {
      "inputs": [],
      "stateMutability": "nonpayable",
      "type": "constructor"
    },
    {
      "inputs": [],
      "name": "owner",
      "outputs": [
        {
          "internalType": "address",
          "name": "",
          "type": "address"
        }
      ],
      "stateMutability": "view",
      "type": "function"
    },
    {
      "inputs": [],
      "name": "restrictedFunction",
      "outputs": [],
      "stateMutability": "nonpayable",
      "type": "function"
    }
  ],
  "bytecode": "0x6080604052348015600f57600080fd5b50336000806101000a81548173ffffffffffffffffffffffffffffffffffffffff021916908373ffffffffffffffffffffffffffffffffffffffff1602179055506102268061005f6000396000f3fe608060405234801561001057600080fd5b50600436106100365760003560e01c8063777acf371461003b5780638da5cb5b14610045575b600080fd5b610043610063565b005b61004d6100f3565b60405161005a9190610158565b60405180910390f35b60008054906101000a900473ffffffffffffffffffffffffffffffffffffffff1673ffffffffffffffffffffffffffffffffffffffff163373ffffffffffffffffffffffffffffffffffffffff16146100f1576040517f08c379a00000000000000000000000000000000000000000000000000000000081526004016100e8906101d0565b60405180910390fd5b565b60008054906101000a900473ffffffffffffffffffffffffffffffffffffffff1681565b600073ffffffffffffffffffffffffffffffffffffffff82169050919050565b600061014282610117565b9050919050565b61015281610137565b82525050565b600060208201905061016d6000830184610149565b92915050565b600082825260208201905092915050565b7f4e6f742074686520636f6e7472616374206f776e657200000000000000000000600082015250565b60006101ba601683610173565b91506101c582610184565b602082019050919050565b600060208201905081810360008301526101e9816101ad565b905091905056fea2646970667358221220e3b16a760eede688ef938b8a0e42f374f88f865c1c03ad4987323a8d9d87a8d864736f6c634300081c0033",
  "linkReferences": {},
  "deployedLinkReferences": {}
}