{
  "_format": "hh-sol-artifact-1",
  "contractName": "ConditionStatement",
  "sourceName": "contracts/ConditionStatement.sol",
  "abi": [
    {
      "inputs": [
        {
          "internalType": "uint256",
          "name": "value",
          "type": "uint256"
        }
      ],
      "name": "checkValue",
      "outputs": [
        {
          "internalType": "string",
          "name": "",
          "type": "string"
        }
      ],
      "stateMutability": "pure",
      "type": "function"
    }
  ],
  "bytecode": "0x6080604052348015600f57600080fd5b5061027b8061001f6000396000f3fe608060405234801561001057600080fd5b506004361061002b5760003560e01c806318db62fb14610030575b600080fd5b61004a60048036038101906100459190610166565b610060565b6040516100579190610223565b60405180910390f35b606060648211156100a8576040518060400160405280601981526020017f56616c75652069732067726561746572207468616e20313030000000000000008152509050610126565b606482036100ed576040518060400160405280601481526020017f56616c75652069732065786163746c79203130300000000000000000000000008152509050610126565b6040518060400160405280601681526020017f56616c7565206973206c657373207468616e203130300000000000000000000081525090505b919050565b600080fd5b6000819050919050565b61014381610130565b811461014e57600080fd5b50565b6000813590506101608161013a565b92915050565b60006020828403121561017c5761017b61012b565b5b600061018a84828501610151565b91505092915050565b600081519050919050565b600082825260208201905092915050565b60005b838110156101cd5780820151818401526020810190506101b2565b60008484015250505050565b6000601f19601f8301169050919050565b60006101f582610193565b6101ff818561019e565b935061020f8185602086016101af565b610218816101d9565b840191505092915050565b6000602082019050818103600083015261023d81846101ea565b90509291505056fea2646970667358221220e24ca056354e4806fd13ac6d9cff27c102cf9039488ccfc14282d4b20981002264736f6c634300081c0033",
  "linkReferences": {},
  "deployedLinkReferences": {}
}