{
  "_format": "hh-sol-artifact-1",
  "contractName": "ConditionExample",
  "sourceName": "contracts/ConditionExample.sol",
  "abi": [
    {
      "inputs": [
        {
          "internalType": "uint256",
          "name": "num",
          "type": "uint256"
        }
      ],
      "name": "checkNumber",
      "outputs": [
        {
          "internalType": "string",
          "name": "",
          "type": "string"
        }
      ],
      "stateMutability": "pure",
      "type": "function"
    }
  ],
  "bytecode": "0x6080604052348015600f57600080fd5b506102368061001f6000396000f3fe608060405234801561001057600080fd5b506004361061002b5760003560e01c8063eb0e924014610030575b600080fd5b61004a60048036038101906100459190610121565b610060565b60405161005791906101de565b60405180910390f35b6060600a8211156100a8576040518060400160405280601981526020017f4e756d6265722069732067726561746572207468616e2031300000000000000081525090506100e1565b6040518060400160405280601481526020017f4e756d626572206973203130206f72206c65737300000000000000000000000081525090505b919050565b600080fd5b6000819050919050565b6100fe816100eb565b811461010957600080fd5b50565b60008135905061011b816100f5565b92915050565b600060208284031215610137576101366100e6565b5b60006101458482850161010c565b91505092915050565b600081519050919050565b600082825260208201905092915050565b60005b8381101561018857808201518184015260208101905061016d565b60008484015250505050565b6000601f19601f8301169050919050565b60006101b08261014e565b6101ba8185610159565b93506101ca81856020860161016a565b6101d381610194565b840191505092915050565b600060208201905081810360008301526101f881846101a5565b90509291505056fea26469706673582212207faf911f6795b5f541821b8390b747cdeea92914ddc86d81ca9c90aeb94719cd64736f6c634300081c0033",
  "linkReferences": {},
  "deployedLinkReferences": {}
}