{
  "_format": "hh-sol-artifact-1",
  "contractName": "EventExample",
  "sourceName": "contracts/EventExample.sol",
  "abi": [
    {
      "anonymous": false,
      "inputs": [
        {
          "indexed": false,
          "internalType": "uint256",
          "name": "oldValue",
          "type": "uint256"
        },
        {
          "indexed": false,
          "internalType": "uint256",
          "name": "newValue",
          "type": "uint256"
        }
      ],
      "name": "ValueChanged",
      "type": "event"
    },
    {
      "inputs": [
        {
          "internalType": "uint256",
          "name": "newValue",
          "type": "uint256"
        }
      ],
      "name": "updateValue",
      "outputs": [],
      "stateMutability": "nonpayable",
      "type": "function"
    },
    {
      "inputs": [],
      "name": "value",
      "outputs": [
        {
          "internalType": "uint256",
          "name": "",
          "type": "uint256"
        }
      ],
      "stateMutability": "view",
      "type": "function"
    }
  ],
  "bytecode": "0x6080604052348015600f57600080fd5b506101b68061001f6000396000f3fe608060405234801561001057600080fd5b50600436106100365760003560e01c80633fa4f2451461003b578063573c0bd314610059575b600080fd5b610043610075565b60405161005091906100de565b60405180910390f35b610073600480360381019061006e919061012a565b61007b565b005b60005481565b600080549050816000819055507f2db947ef788961acc438340dbcb4e242f80d026b621b7c98ee3061995039038281836040516100b9929190610157565b60405180910390a15050565b6000819050919050565b6100d8816100c5565b82525050565b60006020820190506100f360008301846100cf565b92915050565b600080fd5b610107816100c5565b811461011257600080fd5b50565b600081359050610124816100fe565b92915050565b6000602082840312156101405761013f6100f9565b5b600061014e84828501610115565b91505092915050565b600060408201905061016c60008301856100cf565b61017960208301846100cf565b939250505056fea26469706673582212208a1ae7ddca4ced032ac262f604232c75294285f317f5bd4abbf735983a83ef0164736f6c634300081c0033",
  "linkReferences": {},
  "deployedLinkReferences": {}
}