{
  "_format": "hh-sol-artifact-1",
  "contractName": "LocalVariableExample",
  "sourceName": "contracts/LocalVariable.sol",
  "abi": [
    {
      "inputs": [
        {
          "internalType": "uint256",
          "name": "a",
          "type": "uint256"
        },
        {
          "internalType": "uint256",
          "name": "b",
          "type": "uint256"
        }
      ],
      "name": "calculateSum",
      "outputs": [
        {
          "internalType": "uint256",
          "name": "",
          "type": "uint256"
        }
      ],
      "stateMutability": "pure",
      "type": "function"
    }
  ],
  "bytecode": "0x6080604052348015600f57600080fd5b506101b98061001f6000396000f3fe608060405234801561001057600080fd5b506004361061002b5760003560e01c8063ea4097bd14610030575b600080fd5b61004a600480360381019061004591906100b6565b610060565b6040516100579190610105565b60405180910390f35b600080828461006f919061014f565b90508091505092915050565b600080fd5b6000819050919050565b61009381610080565b811461009e57600080fd5b50565b6000813590506100b08161008a565b92915050565b600080604083850312156100cd576100cc61007b565b5b60006100db858286016100a1565b92505060206100ec858286016100a1565b9150509250929050565b6100ff81610080565b82525050565b600060208201905061011a60008301846100f6565b92915050565b7f4e487b7100000000000000000000000000000000000000000000000000000000600052601160045260246000fd5b600061015a82610080565b915061016583610080565b925082820190508082111561017d5761017c610120565b5b9291505056fea26469706673582212203bf902936514058dc6e5e795662d452a1a690ae2ca33068bbe9fe354e90e677964736f6c634300081c0033",
  "linkReferences": {},
  "deployedLinkReferences": {}
}