{
  "_format": "hh-sol-artifact-1",
  "contractName": "ParameterizedModifier",
  "sourceName": "contracts/ParameterModifier.sol",
  "abi": [
    {
      "inputs": [],
      "name": "restrictedFunction",
      "outputs": [],
      "stateMutability": "nonpayable",
      "type": "function"
    },
    {
      "inputs": [
        {
          "internalType": "address",
          "name": "_user",
          "type": "address"
        },
        {
          "internalType": "bool",
          "name": "_status",
          "type": "bool"
        }
      ],
      "name": "setWhitelist",
      "outputs": [],
      "stateMutability": "nonpayable",
      "type": "function"
    },
    {
      "inputs": [
        {
          "internalType": "address",
          "name": "",
          "type": "address"
        }
      ],
      "name": "whitelist",
      "outputs": [
        {
          "internalType": "bool",
          "name": "",
          "type": "bool"
        }
      ],
      "stateMutability": "view",
      "type": "function"
    }
  ],
  "bytecode": "0x6080604052348015600f57600080fd5b5061038a8061001f6000396000f3fe608060405234801561001057600080fd5b50600436106100415760003560e01c806353d6fd5914610046578063777acf37146100625780639b19251a1461006c575b600080fd5b610060600480360381019061005b9190610240565b61009c565b005b61006a6100f6565b005b61008660048036038101906100819190610280565b610185565b60405161009391906102bc565b60405180910390f35b806000808473ffffffffffffffffffffffffffffffffffffffff1673ffffffffffffffffffffffffffffffffffffffff16815260200190815260200160002060006101000a81548160ff0219169083151502179055505050565b336000808273ffffffffffffffffffffffffffffffffffffffff1673ffffffffffffffffffffffffffffffffffffffff16815260200190815260200160002060009054906101000a900460ff16610182576040517f08c379a000000000000000000000000000000000000000000000000000000000815260040161017990610334565b60405180910390fd5b50565b60006020528060005260406000206000915054906101000a900460ff1681565b600080fd5b600073ffffffffffffffffffffffffffffffffffffffff82169050919050565b60006101d5826101aa565b9050919050565b6101e5816101ca565b81146101f057600080fd5b50565b600081359050610202816101dc565b92915050565b60008115159050919050565b61021d81610208565b811461022857600080fd5b50565b60008135905061023a81610214565b92915050565b60008060408385031215610257576102566101a5565b5b6000610265858286016101f3565b92505060206102768582860161022b565b9150509250929050565b600060208284031215610296576102956101a5565b5b60006102a4848285016101f3565b91505092915050565b6102b681610208565b82525050565b60006020820190506102d160008301846102ad565b92915050565b600082825260208201905092915050565b7f55736572206e6f742077686974656c6973746564000000000000000000000000600082015250565b600061031e6014836102d7565b9150610329826102e8565b602082019050919050565b6000602082019050818103600083015261034d81610311565b905091905056fea26469706673582212208ffc577986f32565a09b5d6d0768b69b2ccecc04cc99c17ff0eff2d971e04d2364736f6c634300081c0033",
  "linkReferences": {},
  "deployedLinkReferences": {}
}