{
  "_format": "hh-sol-artifact-1",
  "contractName": "StateMutabilityExample",
  "sourceName": "contracts/StateMutability.sol",
  "abi": [
    {
      "inputs": [
        {
          "internalType": "uint256",
          "name": "a",
          "type": "uint256"
        },
        {
          "internalType": "uint256",
          "name": "b",
          "type": "uint256"
        }
      ],
      "name": "calculateSum",
      "outputs": [
        {
          "internalType": "uint256",
          "name": "",
          "type": "uint256"
        }
      ],
      "stateMutability": "pure",
      "type": "function"
    },
    {
      "inputs": [],
      "name": "deposit",
      "outputs": [],
      "stateMutability": "payable",
      "type": "function"
    },
    {
      "inputs": [],
      "name": "readValue",
      "outputs": [
        {
          "internalType": "uint256",
          "name": "",
          "type": "uint256"
        }
      ],
      "stateMutability": "view",
      "type": "function"
    },
    {
      "inputs": [],
      "name": "value",
      "outputs": [
        {
          "internalType": "uint256",
          "name": "",
          "type": "uint256"
        }
      ],
      "stateMutability": "view",
      "type": "function"
    }
  ],
  "bytecode": "0x6080604052600a600055348015601457600080fd5b50610246806100246000396000f3fe60806040526004361061003f5760003560e01c80633fa4f2451461004457806382da2e571461006f578063d0e30db01461009a578063ea4097bd146100a4575b600080fd5b34801561005057600080fd5b506100596100e1565b6040516100669190610121565b60405180910390f35b34801561007b57600080fd5b506100846100e7565b6040516100919190610121565b60405180910390f35b6100a26100f0565b005b3480156100b057600080fd5b506100cb60048036038101906100c6919061016d565b6100f2565b6040516100d89190610121565b60405180910390f35b60005481565b60008054905090565b565b6000818361010091906101dc565b905092915050565b6000819050919050565b61011b81610108565b82525050565b60006020820190506101366000830184610112565b92915050565b600080fd5b61014a81610108565b811461015557600080fd5b50565b60008135905061016781610141565b92915050565b600080604083850312156101845761018361013c565b5b600061019285828601610158565b92505060206101a385828601610158565b9150509250929050565b7f4e487b7100000000000000000000000000000000000000000000000000000000600052601160045260246000fd5b60006101e782610108565b91506101f283610108565b925082820190508082111561020a576102096101ad565b5b9291505056fea26469706673582212206c9ef4d535ac2aa4f13957eda0c5e13c3ef7a5fa9219ab6d0798edf7ddc9173964736f6c634300081c0033",
  "linkReferences": {},
  "deployedLinkReferences": {}
}